:020000023000CC
:10F000000D949AF80D94AFF80D94AFF80D94AFF8F5
:10F010000D94AFF80D94AFF80D94AFF80D94AFF8D0
:10F020000D94AFF80D94AFF80D94AFF80D94AFF8C0
:10F030000D94AFF80D94AFF80D94AFF80D94AFF8B0
:10F040000D94AFF80D94AFF80D94AFF80D94AFF8A0
:10F050000D94AFF80D94AFF80D94AFF80D94AFF890
:10F060000D94AFF80D94AFF80D94AFF80D94AFF880
:10F070000D94AFF80D94AFF80D94AFF80D94AFF870
:10F080000D94AFF80D94AFF80D94AFF80D94AFF860
:10F090000D94AFF80D94AFF80D94AFF80D94AFF850
:10F0A0000D94AFF80D94AFF80D94AFF80D94AFF840
:10F0B0000D94AFF80D94AFF80D94AFF80D94AFF830
:10F0C0000D94AFF80D94AFF80D94AFF80D94AFF820
:10F0D0000D94AFF80D94AFF80D94AFF80D94AFF810
:10F0E0000D94AFF80D94AFF80D94AFF80D94AFF800
:10F0F0000D94AFF80D94AFF80D94AFF80D94AFF8F0
:10F100000D94AFF80D94AFF80D94AFF80D94AFF8DF
:10F110000D94AFF80D94AFF80D94AFF80D94AFF8CF
:10F120000D94AFF80D94AFF80D94AFF80D94AFF8BF
:10F130000D94AFF811241FBECFEFD1E8DEBFCDBFD5
:10F1400001E00CBF14BE88E10FB6F8948093600014
:10F15000109260000FBE0F940EFA0D948DFB0D946B
:10F1600000F84F925F926F927F928F929F92AF9230
:10F17000BF92CF92DF92EF92FF920F931F93CF93A4
:10F18000DF93CDB7DEB7DA950FB6F894DEBF0FBECA
:10F19000CDBF5C018A01653409F048C0CE010196FB
:10F1A0004C01C12CD12C76012501612C712CC41489
:10F1B000D504E604F70458F40F9407FAD4018D93AC
:10F1C0004D01BFEFCB1ADB0AEB0AFB0AF0CF07B603
:10F1D00000FCFDCFE1E0F0E0EC0FFD1FAE0EBF1E26
:10F1E0009F012A153B0509F46FC0D8018C9181BDA0
:10F1F0004D915D916D917C91BB27A72F962F852F07
:10F2000082BDF90181919F0180BDFA9AF99AF9991D
:10F21000FECFF80180819181A281B3810196A11D69
:10F22000B11D80839183A283B383DBCF663409F061
:10F230004DC0DA01CD90DD90ED90FC90CC0CDD1C42
:10F24000EE1CFF1CFA01C082D182E282F382772495
:10F2500073940F9407FA882E912C0F9407FAD80113
:10F260004D915D916D917C91982A0401FA01609312
:10F270005B0070925700E89511244E5F5F4F6F4F0F
:10F280007F4FF8014083518362837383F2E0AF1AAA
:10F29000B108A114B104E9F685E0F601E0925B0043
:10F2A00080935700E89507B600FCFDCF81E180937D
:10F2B0005700E8957695679557954795D8014D93F2
:10F2C0005D936D937C9313978DE001C08FE3D3958D
:10F2D0000FB6F894DEBF0FBECDBFDF91CF911F9167
:10F2E0000F91FF90EF90DF90CF90BF90AF909F90E5
:10F2F0008F907F906F905F904F900895EF92FF9264
:10F300000F931F93CF93DF937C01EA01653409F5D6
:10F31000888181BD88819981AA81BB81892F9A2F9B
:10F32000AB2FBB2782BD88819981AA81BB810196C1
:10F33000A11DB11D88839983AA83BB83F89A80B5E8
:10F340000F94FBF981E0E81AF108E114F10401F7E8
:10F350003EC0663409F03BC088819981AA81BB8197
:10F36000880F991FAA1FBB1F88839983AA83BB8319
:10F3700088819981AA81BB81ABBFFC0187910F94E1
:10F38000FBF988819981AA81BB810196A11DB11DDC
:10F39000ABBFFC0187910F94FBF9088119812A8189
:10F3A0003B810E5F1F4F2F4F3F4F088319832A83E6
:10F3B0003B8382E0E81AF108E114F104C9F63695BE
:10F3C000279517950795088319832A833B83DF9137
:10F3D000CF911F910F91FF90EF90089582E080935D
:10F3E000C00080E190E09093C5008093C40088E164
:10F3F0008093C10008958093C6008091C00086FF6D
:10F40000FCCF8091C00080648093C00008958091FB
:10F41000C00087FFFCCF8091C60008959F92AF92F5
:10F42000BF92CF92DF92EF92FF920F931F93CF93F1
:10F43000DF9300D01F92CDB7DEB788E10FB6F89406
:10F4400080936000109260000FBE2E9A0F94EEF928
:10F450001E9948C1F1E1DF2EE12CF12CA5E0CA2E66
:10F46000BB24B394B3E0AB2E0F9407FA813611F4AA
:10F4700089E535C1813481F40F9407FA982E0F94F1
:10F4800007FA292D30E0322F2227282BC901AA277D
:10F4900097FDA095BA2FAFC0853629F519821A823B
:10F4A0001B821C8289819A81AB81BC81811520EEEF
:10F4B000920723E0A207B10588F407B600FCFDCF50
:10F4C000FC01A0935B00A0925700E8959F5FAF4FAF
:10F4D000BF4F89839A83AB83BC83E4CF19821A829E
:10F4E0001B821C82CFC0823639F489E50F94FBF968
:10F4F00081E00F94FBF9BCC0823499F40F9407FAB1
:10F50000082F0F9407FA10E0102F0027082B0F94F4
:10F5100007FAAE014F5F5F4F682FC8010F94B1F833
:10F52000DEC0873699F40F9407FA082F0F9407FA74
:10F5300010E0102F0027082B0F9407FAAE014F5F41
:10F540005F4F682FC8010F947EF98ECF823579F511
:10F5500007B600FCFDCFD0925700E89589819A81CB
:10F56000AB81BC81880F991FAA1FBB1F0196A11DEB
:10F57000B11DABBFFC0187910F94FBF989819A8182
:10F58000AB81BC81880F991FAA1FBB1FABBFFC01B9
:10F5900087910F94FBF989819A81AB81BC81019697
:10F5A000A11DB11D89839A83AB83BC835DCF833654
:10F5B00029F40F9407FA082F10E064C0833401F592
:10F5C0000F9407FA182B07B600FCFDCF89819A81AA
:10F5D000AB81BC81AC01BD01440F551F661F771F75
:10F5E0000801FA0160935B00B0925700E89511247E
:10F5F0000196A11DB11D89839A83AB83BC8342C050
:10F600008D36E9F489819A81AB81BC818115E0EF67
:10F610009E07E1E0AE07B10520F08FE30F94FBF900
:10F6200031C007B600FCFDCF880F991FAA1FBB1F72
:10F63000FC01A0935B00C0925700E89523C0803581
:10F6400009F18C34F9F0873769F407B600FCFDCF77
:10F65000D0925700E8958DE00F94FBF91CBEF7019E
:10F66000199502CF803711F483E539C0843711F43E
:10F6700080E035C098E8980F923010F0843521F47E
:10F680000F9407FA8DE02BC08335A1F481E40F9429
:10F69000FBF984E50F94FBF982E40F94FBF98FE604
:10F6A0000F94FBF98FE60F94FBF984E70F94FBF9B5
:10F6B00088E515C0863529F481E30F94FBF985E3CD
:10F6C0000EC0833741F482E00F94FBF988EA0F946F
:10F6D000FBF98EE104C08B3109F4C6CE8FE30F94A1
:10F6E000FBF9C2CE07B600FCFDCF81E18093570045
:10F6F000E8951CBEE0E0F0E019950F900F900F9098
:10F700000F90DF91CF911F910F91FF90EF90DF90BD
:0EF71000CF90BF90AF909F900895F894FFCFD8
:040000033000F000D9
:00000001FF
