:020000021000EC
:10F000000C9490F80C94A3F80C94A3F80C94A3F827
:10F010000C94A3F80C94A3F80C94A3F80C94A3F804
:10F020000C94A3F80C94A3F80C94A3F80C94A3F8F4
:10F030000C94A3F80C94A3F80C94A3F80C94A3F8E4
:10F040000C94A3F80C94A3F80C94A3F80C94A3F8D4
:10F050000C94A3F80C94A3F80C94A3F80C94A3F8C4
:10F060000C94A3F80C94A3F80C94A3F80C94A3F8B4
:10F070000C94A3F80C94A3F80C94A3F80C94A3F8A4
:10F080000C94A3F80C94A3F80C94A3F80C94A3F894
:10F090000C94A3F80C94A3F80C94A3F80C94A3F884
:10F0A0000C94A3F80C94A3F80C94A3F80C94A3F874
:10F0B0000C94A3F80C94A3F80C94A3F80C94A3F864
:10F0C0000C94A3F80C94A3F80C94A3F80C94A3F854
:10F0D0000C94A3F80C94A3F80C94A3F80C94A3F844
:10F0E0000C94A3F80C94A3F80C94A3F80C94A3F834
:10F0F0000C94A3F80C94A3F80C94A3F80C94A3F824
:10F100000C94A3F80C94A3F80C94A3F80C94A3F813
:10F110000C94A3F80C94A3F80C94A3F80C94A3F803
:10F1200011241FBECFEFD1E4DEBFCDBF14BE88E1F6
:10F130000FB6F89480936000109260000FBE0E949A
:10F1400002FA0C947BFB0C9400F84F925F926F9242
:10F150007F928F929F92AF92BF92CF92DF92EF9267
:10F16000FF920F931F93CF93DF93CDB7DEB7DA955E
:10F170000FB6F894DEBF0FBECDBF5C018A016534C7
:10F1800009F048C0CE0101964C01C12CD12C76016A
:10F190002501612C712CC414D504E604F70458F43D
:10F1A0000E94FBF9D4018D934D01BFEFCB1ADB0A0E
:10F1B000EB0AFB0AF0CF07B600FCFDCFE1E0F0E080
:10F1C000EC0FFD1FAE0EBF1E9F012A153B0509F473
:10F1D0006FC0D8018C9181BD4D915D916D917C91F5
:10F1E000BB27A72F962F852F82BDF90181919F0103
:10F1F00080BDFA9AF99AF999FECFF8018081918140
:10F20000A281B3810196A11DB11D80839183A28348
:10F21000B383DBCF663409F04DC0DA01CD90DD90C9
:10F22000ED90FC90CC0CDD1CEE1CFF1CFA01C082A2
:10F23000D182E282F382772473940E94FBF9882EB4
:10F24000912C0E94FBF9D8014D915D916D917C91BB
:10F25000982A0401FA0160935B0070925700E895C8
:10F2600011244E5F5F4F6F4F7F4FF80140835183F2
:10F2700062837383F2E0AF1AB108A114B104E9F616
:10F2800085E0F601E0925B0080935700E89507B6B1
:10F2900000FCFDCF81E180935700E8957695679556
:10F2A00057954795D8014D935D936D937C93139734
:10F2B0008DE001C08FE3D3950FB6F894DEBF0FBE8B
:10F2C000CDBFDF91CF911F910F91FF90EF90DF9015
:10F2D000CF90BF90AF909F908F907F906F905F90F6
:10F2E0004F900895EF92FF920F931F93CF93DF9368
:10F2F0007C01EA01653409F5888181BD88819981A5
:10F30000AA81BB81892F9A2FAB2FBB2782BD888111
:10F310009981AA81BB810196A11DB11D8883998322
:10F32000AA83BB83F89A80B50E94EFF981E0E81ABE
:10F33000F108E114F10401F73EC0663409F03BC066
:10F3400088819981AA81BB81880F991FAA1FBB1F41
:10F3500088839983AA83BB8388819981AA81BB8191
:10F36000ABBFFC0187910E94EFF988819981AA8146
:10F37000BB810196A11DB11DABBFFC0187910E940D
:10F38000EFF9088119812A813B810E5F1F4F2F4FB2
:10F390003F4F088319832A833B8382E0E81AF108F0
:10F3A000E114F104C9F6369527951795079508835A
:10F3B00019832A833B83DF91CF911F910F91FF9097
:10F3C000EF90089582E08093C00080E190E09093F8
:10F3D000C5008093C40088E18093C10008958093A4
:10F3E000C6008091C00086FFFCCF8091C000806481
:10F3F0008093C00008958091C00087FFFCCF80916A
:10F40000C6000895AF92BF92CF92DF92EF92FF9223
:10F410000F931F93CF93DF9300D000D0CDB7DEB70B
:10F4200088E10FB6F89480936000109260000FBEE0
:10F430002E9A0E94E2F91E9945C1F1E1DF2EE12CDE
:10F44000F12CA5E0CA2EB3E0BB2E0E94FBF9813659
:10F4500011F489E534C1813481F40E94FBF9A82EAE
:10F460000E94FBF92A2D30E0322F2227282BC901D8
:10F47000AA2797FDA095BA2FB0C0853629F5198225
:10F480001A821B821C8289819A81AB81BC81811581
:10F4900020EE920721E0A207B10588F407B600FC30
:10F4A000FDCFFC01A0935B00B0925700E8959F5FF1
:10F4B000AF4FBF4F89839A83AB83BC83E4CF19825C
:10F4C0001A821B821C82CEC0823639F489E50E94E2
:10F4D000EFF981E00E94EFF9BBC0823499F40E94F9
:10F4E000FBF9082F0E94FBF910E0102F0027082BD2
:10F4F0000E94FBF9AE014F5F5F4F682FC8010E9469
:10F50000A5F8DDC0873699F40E94FBF9082F0E9408
:10F51000FBF910E0102F0027082B0E94FBF9AE0129
:10F520004F5F5F4F682FC8010E9472F98ECF8235FE
:10F5300079F507B600FCFDCFD0925700E895898198
:10F540009A81AB81BC81880F991FAA1FBB1F0196AE
:10F55000A11DB11DABBFFC0187910E94EFF989810C
:10F560009A81AB81BC81880F991FAA1FBB1FABBFBB
:10F57000FC0187910E94EFF989819A81AB81BC815E
:10F580000196A11DB11D89839A83AB83BC835DCF96
:10F59000833629F40E94FBF9082F10E063C08334FE
:10F5A00009F50E94FBF9182B07B600FCFDCF8981F5
:10F5B0009A81AB81BC81AC01BD01440F551F661F10
:10F5C000771F21E00801FA0160935B002093570048
:10F5D000E89511240196A11DB11D89839A83AB83FF
:10F5E000BC8340C08D36E1F489819A81AB81BC81B6
:10F5F0008115E0EF9E07A105B10520F08FE30E9481
:10F60000EFF930C007B600FCFDCF880F991FAA1F85
:10F61000BB1FFC01A0935B00C0925700E89522C07D
:10F62000803501F18C34F1F0873761F407B600FCC6
:10F63000FDCFD0925700E8958DE00E94EFF9F701D9
:10F64000099503CF803711F483E539C0843711F46D
:10F6500080E035C098E8980F923010F0843521F49E
:10F660000E94FBF98DE02BC08335A1F481E40E9458
:10F67000EFF984E50E94EFF982E40E94EFF98FE64A
:10F680000E94EFF98FE60E94EFF984E70E94EFF9FC
:10F6900088E515C0863529F481E30E94EFF985E3FA
:10F6A0000EC0833741F481E00E94EFF987EA0E949F
:10F6B000EFF98EE104C08B3109F4C7CE8FE30E94CD
:10F6C000EFF9C3CE07B600FCFDCF81E18093570070
:10F6D000E895E0E0F0E009950F900F900F900F9003
:10F6E000DF91CF911F910F91FF90EF90DF90CF901E
:0AF6F000BF90AF900895F894FFCF8B
:040000031000F000F9
:00000001FF
