:020000021000EC
:10F000000C9490F80C94A2F80C94A2F80C94A2F82A
:10F010000C94A2F80C94A2F80C94A2F80C94A2F808
:10F020000C94A2F80C94A2F80C94A2F80C94A2F8F8
:10F030000C94A2F80C94A2F80C94A2F80C94A2F8E8
:10F040000C94A2F80C94A2F80C94A2F80C94A2F8D8
:10F050000C94A2F80C94A2F80C94A2F80C94A2F8C8
:10F060000C94A2F80C94A2F80C94A2F80C94A2F8B8
:10F070000C94A2F80C94A2F80C94A2F80C94A2F8A8
:10F080000C94A2F80C94A2F80C94A2F80C94A2F898
:10F090000C94A2F80C94A2F80C94A2F80C94A2F888
:10F0A0000C94A2F80C94A2F80C94A2F80C94A2F878
:10F0B0000C94A2F80C94A2F80C94A2F80C94A2F868
:10F0C0000C94A2F80C94A2F80C94A2F80C94A2F858
:10F0D0000C94A2F80C94A2F80C94A2F80C94A2F848
:10F0E0000C94A2F80C94A2F80C94A2F80C94A2F838
:10F0F0000C94A2F80C94A2F80C94A2F80C94A2F828
:10F100000C94A2F80C94A2F80C94A2F80C94A2F817
:10F110000C94A2F80C94A2F80C94A2F80C94A2F807
:10F1200011241FBECFEFD1E4DEBFCDBF22E0A0E0AF
:10F13000B2E001C01D92A130B207E1F70E9451FA7E
:10F140000C941BFC0C9400F814BE88E10FB6F894E4
:10F1500080936000109260000FBE08954F925F92FE
:10F160006F927F928F929F92AF92BF92CF92DF92D7
:10F17000EF92FF920F931F93CF93DF93CDB7DEB73C
:10F18000DA950FB6F894DEBF0FBECDBF6C018A01D1
:10F19000653409F04EC04C01A12CB12C81149104AE
:10F1A000A104B104A9F0CE0101967C01412C512C9F
:10F1B00032010E9413FCD7018D937D01BFEF4B1AE2
:10F1C0005B0A6B0A7B0A481459046A047B0489F7BA
:10F1D00007B600FCFDCF89288A288B2809F479C05E
:10F1E0009E012F5F3F4FC20ED31EF801808181BD6B
:10F1F00080819181A281B381892F9A2FAB2FBB2768
:10F2000082BDD9018D919D0180BDFA9AF99AF99933
:10F21000FECFF80180819181A281B3810196A11D69
:10F22000B11D80839183A283B3832C153D05E9F63C
:10F2300052C0663409F051C0DA018D909D90AD90B6
:10F24000BC90880C991CAA1CBB1CFA01808291827C
:10F25000A282B382772473940E9413FCE82EF12CCF
:10F260000E9413FCD8014D915D916D917C91F82A1B
:10F270000701FA0160935B0070925700E895112432
:10F280004E5F5F4F6F4F7F4FF80140835183628322
:10F290007383F2E0CF1AD108C114D104E9F685E0F6
:10F2A000F401A0925B0080935700E89507B600FC3C
:10F2B000FDCF81E180935700E89576956795579546
:10F2C0004795D8014D935D936D937C9313978DE093
:10F2D00005C08DE003C08DE001C08FE3D3950FB66C
:10F2E000F894DEBF0FBECDBFDF91CF911F910F917C
:10F2F000FF90EF90DF90CF90BF90AF909F908F9056
:10F300007F906F905F904F900895EF92FF920F93D0
:10F310001F93CF93DF937C01EA01653409F588815F
:10F3200081BD88819981AA81BB81892F9A2FAB2FBA
:10F33000BB2782BD88819981AA81BB810196A11DCD
:10F34000B11D88839983AA83BB83F89A80B50E94F4
:10F3500006FC81E0E81AF108E114F10401F73EC06F
:10F36000663409F03BC088819981AA81BB81880FEE
:10F37000991FAA1FBB1F88839983AA83BB83888197
:10F380009981AA81BB81ABBFFC0187910E9406FCD9
:10F3900088819981AA81BB810196A11DB11DABBF56
:10F3A000FC0187910E9406FC088119812A813B811A
:10F3B0000E5F1F4F2F4F3F4F088319832A833B83D4
:10F3C00082E0E81AF108E114F104C9F636952795B0
:10F3D00017950795088319832A833B83DF91CF9183
:10F3E0001F910F91FF90EF9008952091A40030910C
:10F3F000A500820F931FEAEAF0E0918380832081C9
:10F4000031818091A8009091A9008217930750F450
:10F41000808191812091A8003091A900821B930BDB
:10F420009183808384E089BBCA9BFECF08951F939C
:10F43000CF93DF93C5E0D0E018E080E395E70E942A
:10F44000F5F91EB980E395E70E94F5F91EB82197FA
:10F45000209799F7DF91CF911F9108956B9A80E9DA
:10F4600090ED9093A9008093A800E1EAF0E088E095
:10F4700080838081836080830E9417FA08950E94B0
:10F4800017FA1092A1001092A9001092A8001092F1
:10F49000AB001092AA001092A5001092A4001DB813
:10F4A0000895AF92BF92CF92DF92EF92FF920F93A7
:10F4B0001F93CF93DF9300D000D0CDB7DEB70E946B
:10F4C000A4F82E9A0E94F9FB1E9978C10E942EFA88
:10F4D0000F2EF1E1EF2EF02DA12CB12C0F2EF5E027
:10F4E000CF2EF02D0F2EF3E0FF2EF02D0E9413FCF7
:10F4F000813621F489E50E9406FCF8CF8134C1F4FD
:10F500000E9413FCD82E0E9413FC2D2D30E0322FC8
:10F510002227A901482BCA01AA2797FDA095BA2F37
:10F5200089839A83AB83BC838DE00E9406FCDECF87
:10F53000853631F519821A821B821C8240E050E028
:10F54000BA0107B600FCFDCFFA0160935B00F092B0
:10F550005700E8955F5F6F4F7F4F49835A836B83F6
:10F560007C83411580EE580781E06807710549F7F3
:10F5700019821A821B821C828DE00E9406FCB6CF83
:10F58000823651F489E50E9406FC81E00E9406FC67
:10F5900080E00E9406FCAACF8234A9F40E9413FCEA
:10F5A000082F0E9413FC10E0102F0027082B0E9448
:10F5B00013FCAE014F5F5F4F682FC8010E94AEF889
:10F5C0000E9406FC93CF873699F40E9413FC082F03
:10F5D0000E9413FC10E0102F0027082B0E9413FC40
:10F5E000AE014F5F5F4F682FC8010E9485F97ECF43
:10F5F000823579F507B600FCFDCFE0925700E8951B
:10F6000089819A81AB81BC81880F991FAA1FBB1F7A
:10F610000196A11DB11DABBFFC0187910E9406FCA4
:10F6200089819A81AB81BC81880F991FAA1FBB1F5A
:10F63000ABBFFC0187910E9406FC89819A81AB8156
:10F64000BC810196A11DB11D89839A83AB83BC83C4
:10F650004DCF833641F40E9413FC082F10E08DE05B
:10F660000E9406FC43CF833421F50E9413FC182B23
:10F6700007B600FCFDCF89819A81AB81BC81AC01CA
:10F68000BD01440F551F661F771F21E00801FA01D5
:10F6900060935B0020935700E89511240196A11D0B
:10F6A000B11D89839A83AB83BC838DE00E9406FCE5
:10F6B0001DCF8D36F9F489819A81AB81BC8181158A
:10F6C000E0EF9E07A105B10520F08FE30E9406FC44
:10F6D0000DC007B600FCFDCF880F991FAA1FBB1FE6
:10F6E000FC01A0935B00C0925700E8958DE00E945A
:10F6F00006FCFCCE803511F08C3421F48DE00E94A4
:10F7000006FCF4CE873771F407B600FCFDCFE0921B
:10F710005700E8958DE00E9406FC0E943FFAF50133
:10F720000995E4CE803721F483E50E9406FCDECE05
:10F73000843721F480E00E9406FCD8CE98E8980F28
:10F74000923010F0843531F40E9413FC8DE00E9459
:10F7500006FCCCCE8335B1F481E40E9406FC84E53E
:10F760000E9406FC82E40E9406FC8FE60E9406FCD2
:10F770008FE60E9406FC84E70E9406FC88E50E9452
:10F7800006FCB4CE863539F481E30E9406FC85E39D
:10F790000E9406FCABCE833751F481E00E9406FC48
:10F7A00087EA0E9406FC8EE10E9406FC9FCE8B3108
:10F7B00009F49CCE8FE30E9406FC98CE07B600FCAD
:10F7C000FDCF81E180935700E8950E943FFAE0E089
:10F7D000F0E009950F900F900F900F90DF91CF916F
:10F7E0001F910F91FF90EF90DF90CF90BF90AF905F
:10F7F000089582E08093C00080E190E09093C5007E
:10F800008093C40088E18093C10008958093C6006E
:10F81000E0ECF0E0808186FFFDCFE0ECF0E080815D
:10F82000806480830895E0ECF0E080818823ECF729
:0AF830008091C6000895F894FFCF00
:040000031000F000F9
:00000001FF
