:020000023000CC
:10F000000D949AF80D94AEF80D94AEF80D94AEF8F8
:10F010000D94AEF80D94AEF80D94AEF80D94AEF8D4
:10F020000D94AEF80D94AEF80D94AEF80D94AEF8C4
:10F030000D94AEF80D94AEF80D94AEF80D94AEF8B4
:10F040000D94AEF80D94AEF80D94AEF80D94AEF8A4
:10F050000D94AEF80D94AEF80D94AEF80D94AEF894
:10F060000D94AEF80D94AEF80D94AEF80D94AEF884
:10F070000D94AEF80D94AEF80D94AEF80D94AEF874
:10F080000D94AEF80D94AEF80D94AEF80D94AEF864
:10F090000D94AEF80D94AEF80D94AEF80D94AEF854
:10F0A0000D94AEF80D94AEF80D94AEF80D94AEF844
:10F0B0000D94AEF80D94AEF80D94AEF80D94AEF834
:10F0C0000D94AEF80D94AEF80D94AEF80D94AEF824
:10F0D0000D94AEF80D94AEF80D94AEF80D94AEF814
:10F0E0000D94AEF80D94AEF80D94AEF80D94AEF804
:10F0F0000D94AEF80D94AEF80D94AEF80D94AEF8F4
:10F100000D94AEF80D94AEF80D94AEF80D94AEF8E3
:10F110000D94AEF80D94AEF80D94AEF80D94AEF8D3
:10F120000D94AEF80D94AEF80D94AEF80D94AEF8C3
:10F130000D94AEF811241FBECFEFD1E8DEBFCDBFD6
:10F1400001E00CBF22E0A0E0B2E001C01D92A130BE
:10F15000B207E1F70F945DFA0D942DFC0D9400F8C1
:10F1600014BE88E10FB6F89480936000109260009E
:10F170000FBE08954F925F926F927F928F929F92EF
:10F18000AF92BF92CF92DF92EF92FF920F931F93B5
:10F19000CF93DF93CDB7DEB7DA950FB6F894DEBF25
:10F1A0000FBECDBF6C018A01653409F04EC04C0121
:10F1B000A12CB12C81149104A104B104A9F0CE01B9
:10F1C00001967C01412C512C32010F9425FCD70172
:10F1D0008D937D01BFEF4B1A5B0A6B0A7B0A4814C3
:10F1E00059046A047B0489F707B600FCFDCF89281F
:10F1F0008A288B2809F479C09E012F5F3F4FC20EE9
:10F20000D31EF801808181BD80819181A281B3816B
:10F21000892F9A2FAB2FBB2782BDD9018D919D01DC
:10F2200080BDFA9AF99AF999FECFF801808191810F
:10F23000A281B3810196A11DB11D80839183A28318
:10F24000B3832C153D05E9F652C0663409F051C070
:10F25000DA018D909D90AD90BC90880C991CAA1CF1
:10F26000BB1CFA0180829182A282B38277247394BC
:10F270000F9425FCE82EF12C0F9425FCD8014D911C
:10F280005D916D917C91F82A0701FA0160935B0012
:10F2900070925700E89511244E5F5F4F6F4F7F4F7C
:10F2A000F8014083518362837383F2E0CF1AD1085F
:10F2B000C114D104E9F685E0F401A0925B008093CB
:10F2C0005700E89507B600FCFDCF81E18093570019
:10F2D000E8957695679557954795D8014D935D9339
:10F2E0006D937C9313978DE005C08DE003C08DE096
:10F2F00001C08FE3D3950FB6F894DEBF0FBECDBF2C
:10F30000DF91CF911F910F91FF90EF90DF90CF9001
:10F31000BF90AF909F908F907F906F905F904F9035
:10F320000895EF92FF920F931F93CF93DF937C0189
:10F33000EA01653409F5888181BD88819981AA81B6
:10F34000BB81892F9A2FAB2FBB2782BD88819981E2
:10F35000AA81BB810196A11DB11D88839983AA83CF
:10F36000BB83F89A80B50F9418FC81E0E81AF10885
:10F37000E114F10401F73EC0663409F03BC0888116
:10F380009981AA81BB81880F991FAA1FBB1F8883FF
:10F390009983AA83BB8388819981AA81BB81ABBFF2
:10F3A000FC0187910F9418FC88819981AA81BB8107
:10F3B0000196A11DB11DABBFFC0187910F9418FCF4
:10F3C000088119812A813B810E5F1F4F2F4F3F4FCC
:10F3D000088319832A833B8382E0E81AF108E11449
:10F3E000F104C9F636952795179507950883198373
:10F3F0002A833B83DF91CF911F910F91FF90EF9074
:10F4000008952091A4003091A500820F931FEAEA8D
:10F41000F0E091838083208131818091A8009091D8
:10F42000A9008217930750F4808191812091A80050
:10F430003091A900821B930B9183808384E089BB68
:10F44000CA9BFECF08951F93CF93DF93C5E0D0E012
:10F4500018E080E395E70F9401FA1EB980E395E781
:10F460000F9401FA1EB82197209799F7DF91CF9159
:10F470001F9108956B9A80E990ED9093A900809375
:10F48000A800E1EAF0E088E08083808183608083E7
:10F490000F9423FA08950F9423FA1092A10010926A
:10F4A000A9001092A8001092AB001092AA0010922E
:10F4B000A5001092A4001DB808958F929F92BF924C
:10F4C000CF92DF92EF92FF920F931F93CF93DF9330
:10F4D00000D01F92CDB7DEB70F94B0F82E9A0F94DC
:10F4E0000BFC1E997BC10F943AFA0F2EF1E1EF2E1F
:10F4F000F02D812C912C0F2EF5E0BF2EF02DDD2468
:10F50000D3940F2EF3E0FF2EF02D0F9425FC8136BF
:10F5100021F489E50F9418FCF8CF8134C1F40F94DD
:10F5200025FCC82E0F9425FC2C2D30E0322F2227ED
:10F53000A901482BCA01AA2797FDA095BA2F898354
:10F540009A83AB83BC838DE00F9418FCDECF8536A5
:10F5500031F519821A821B821C8240E050E0BA0108
:10F5600007B600FCFDCFFA0160935B00F0925700F4
:10F57000E8955F5F6F4F7F4F49835A836B837C832E
:10F58000411580EE580783E06807710549F7198235
:10F590001A821B821C828DE00F9418FCB6CF823633
:10F5A00051F489E50F9418FC8D2D0F9418FC80E020
:10F5B0000F9418FCAACF8234A9F40F9425FC082FCD
:10F5C0000F9425FC10E0102F0027082B0F9425FC2A
:10F5D000AE014F5F5F4F682FC8010F94BAF80F94C8
:10F5E00018FC93CF873699F40F9425FC082F0F94BD
:10F5F00025FC10E0102F0027082B0F9425FCAE01EE
:10F600004F5F5F4F682FC8010F9491F97ECF82350D
:10F6100079F507B600FCFDCFE0925700E8958981A7
:10F620009A81AB81BC81880F991FAA1FBB1F0196CD
:10F63000A11DB11DABBFFC0187910F9418FC8981FE
:10F640009A81AB81BC81880F991FAA1FBB1FABBFDA
:10F65000FC0187910F9418FC89819A81AB81BC8150
:10F660000196A11DB11D89839A83AB83BC834DCFC5
:10F67000833641F40F9425FC082F10E08DE00F94A1
:10F6800018FC43CF833419F50F9425FC182B07B6CB
:10F6900000FCFDCF89819A81AB81BC81AC01BD01A9
:10F6A000440F551F661F771F0801FA0160935B0026
:10F6B000D0925700E89511240196A11DB11D8983B0
:10F6C0009A83AB83BC838DE00F9418FC1ECF8D36DC
:10F6D00001F589819A81AB81BC818115E0EF9E079C
:10F6E000E1E0AE07B10520F08FE30F9418FC0DC0E8
:10F6F00007B600FCFDCF880F991FAA1FBB1FFC0196
:10F70000A0935B00B0925700E8958DE00F9418FC31
:10F71000FCCE803511F08C3421F48DE00F9418FC70
:10F72000F4CE873779F407B600FCFDCFE09257009E
:10F73000E8958DE00F9418FC1CBE0F944BFAF40171
:10F740001995E3CE803721F483E50F9418FCDDCEC4
:10F75000843721F480E00F9418FCD7CE98E8980FF6
:10F76000923010F0843531F40F9425FC8DE00F9425
:10F7700018FCCBCE8335B1F481E40F9418FC84E5FA
:10F780000F9418FC82E40F9418FC8FE60F9418FC79
:10F790008FE60F9418FC84E70F9418FC88E50F940B
:10F7A00018FCB3CE863539F481E30F9418FC85E359
:10F7B0000F9418FCAACE833751F482E00F9418FC02
:10F7C00088EA0F9418FC8EE10F9418FC9ECE8B31C2
:10F7D00009F49BCE8FE30F9418FC97CE07B600FC7C
:10F7E000FDCF81E180935700E8951CBE0F944BFA42
:10F7F000E0E0F0E019950F900F900F900F90DF91DF
:10F80000CF911F910F91FF90EF90DF90CF90BF901D
:10F810009F908F90089582E08093C00080E190E0F7
:10F820009093C5008093C40088E18093C10008953F
:10F830008093C600E0ECF0E0808186FFFDCFE0EC35
:10F84000F0E08081806480830895E0ECF0E08081C6
:0EF850008823ECF78091C6000895F894FFCF4E
:040000033000F000D9
:00000001FF
